:1070000055C000007EC000007CC000007AC00000B7
:1070100078C0000076C0000074C0000072C000009C
:1070200070C000006EC00000E5C500006AC000002E
:1070300068C0000066C0000064C0000062C00000BC
:1070400060C000005EC000005CC000005AC00000CC
:10705000F6C1000056C0000054C0000052C000003D
:1070600050C000004EC000004CC000004AC00000EC
:1070700048C0000046C0000044C0000042C00000FC
:1070800040C000003EC000003CC000003AC000000C
:1070900038C0000036C0000034C0000032C000001C
:1070A00030C000002EC000002CC0000011241FBE04
:1070B000CFEFDAE0DEBFCDBF83E090E083D480FD88
:1070C00004C084B78D7F84BF03C084B7877F84BF2B
:1070D000E0E0F0E08591949111E0A0E0B1E0E0E221
:1070E000FFE702C005900D92A636B107D9F721E05F
:1070F000A6E6B1E001C01D92A338B207E1F739D18D
:107100000DC77ECF8823C9F09091F3002091F20043
:1071100030E0392B232B69F49091E8009B7F90930A
:10712000E8009091E80092FD06C09EB39111F9CF5E
:1071300004C09091F1008150E5CF0895EEE6F1E0B2
:1071400035812481938182819093680180936901C4
:10715000C90190936601809367010895CF92DF92F1
:10716000EF92FF921F93CF93DF9300D01F92CDB782
:10717000DEB79091780180916E019923D1F084302F
:1071800049F480916F01811108C0809170018F3F97
:1071900021F455C0853009F4A3C08AE08093000132
:1071A00083E0809376018091EB0080628093EB0016
:1071B000D5C0843009F443C028F4813051F08330C5
:1071C000D9F0CCC0853009F48BC0863009F4B3C047
:1071D000C5C010916F01123008F0C0C0AFDF1111AF
:1071E00009C0609168017091690120916A01822F44
:1071F00090E075D385E007C080916F01982F9D7F47
:1072000029F49CDF89E080930001A8C0813009F057
:10721000A5C0E0E0F0E084918F3F59F010926A0140
:10722000F0936901E09368018AE08093000185E0B2
:1072300093C03196E11520E7F20769F78FC080917E
:107240006F01833091F581E080937701E0917401C3
:10725000F091750180917001309761F0813009F0F3
:107260007DC0909173018091720190936B01809326
:107270006C0174C0811111C082E49CED9093840173
:10728000809383019CE088E10FB6F894A8958093E1
:1072900060000FBE9093600061C08591949101964B
:1072A00009F05CC01092010159C0811157C0809152
:1072B00070018F3F09F052C0C12CD12C7601C7015B
:1072C000B6010DD380E8C80ED11CE11CF11CC1141D
:1072D00020E7D206E104F10491F7109278013EC054
:1072E0008091020190910301A091040189839A8306
:1072F000AB838091700190916F01911107C0833031
:1073000038F5FE01E80FF11D818112C0913031F591
:10731000813359F020F48033D9F488E509C08036F0
:1073200031F08136A9F487E803C08EE101C085E918
:1073300080936D0113C080916F01833079F4809147
:10734000700181110BC08091710180936A0106C0A8
:107350008AE08093000188E0809376010F900F907F
:107360000F90DF91CF911F91FF90EF90DF90CF9022
:10737000089584B7877F84BF0FB6F894A89580914D
:107380006000886180936000109260000FBE90E002
:1073900080E80FB6F89480936100909361000FBE6F
:1073A000C1E0C5BF82E085BF819A899A559A05D40C
:1073B000209A289A3E9A469AC0936F0083E0809361
:1073C000810085B18E7B85B988B18E7B88B9789430
:1073D000C0E0D0E080910101882361F17DD589B1C1
:1073E000807290910001923009F5C93893E1D90774
:1073F000E8F0882369F38FE99FE00197F1F700C077
:10740000000088D320982E983898469810926F00E4
:107410001092810081E085BF15BE1BB81AB811BA61
:1074200010BAE0916B01F0916C010995882381F20B
:107430002196D0CF809177018111D0CFDCCF1F92E0
:107440000F920FB60F9211248F9381E083B980E4DD
:1074500086B98F910F900FBE0F901F9018955F9275
:107460006F927F928F929F92AF92BF92CF92DF9254
:10747000EF92FF920F931F93CF93DF9380917B0145
:107480008F77813209F0E9C181E083B980E486B960
:107490008091810190918201909375018093740194
:1074A00080917C01833009F492C158F48130D1F08D
:1074B000823009F0D2C18091E800877F8093E80094
:1074C000F6C0853009F4A9C108F49FC1863009F0DF
:1074D000C4C18091E800877F8093E80082E08093B8
:1074E0000001ABC18091E800877F8093E800809124
:1074F0007701882319F032DE1092770180917401B0
:1075000090917501009761F12091E80022FD04C07F
:107510002EB32111F9CFA1C12091F10020936E016A
:1075200001979093750180937401EFE6F1E020914B
:10753000F3008091F20090E0922B892B81F08091F2
:10754000F10081938091740190917501019790935E
:1075500075018093740121E0E437F20741F7FEDD05
:1075600080910001853009F09AC08091740190915A
:107570007501892B21F482E08093000190C08AE19B
:10758000C1DD0091680110916901802F8F71BADD12
:10759000C0916601D09167012196C01BD10B8091EB
:1075A0006F0181116AC0D695C795680180916A0103
:1075B000E82EF12C7D2C682E5F2C10E02097D9F15D
:1075C0002091F3008091F20090E0922B892BA9F09A
:1075D00021974091F1005091F100C701B601DFD130
:1075E0001F5F4601570182E0880E911CA11CB11C4F
:1075F00075016401103471F40FC08091E8008B7F35
:107600008093E8008091E80082FDE2CF8EB3811183
:10761000F9CF23C1209791F6602F772D862D952DD8
:107620008ED1209759F2C501B40159D1082D792C7A
:107630006A2C5B2CC2CF8091660190916701909378
:1076400069018093680129C02091F3008091F200C4
:1076500090E0922B892BA1F021976091F10080910D
:1076600068019091690148D4809168019091690105
:1076700001969093690180936801209729F70DC0C6
:107680008091E8008B7F8093E8008091E80082FD84
:10769000E3CF8EB38111F9CFE0C080E133DD80917B
:1076A000E8008B7F91C08EB3882309F4D6C0809107
:1076B000E80080FFF8CF80910001893091F08A3096
:1076C00059F480916F01813039F490916801809173
:1076D00069019093F10002C080916D018093F100E7
:1076E00070C02091680130916901C0916601D0910C
:1076F00067012196C21BD30B80916F01811133C0AA
:10770000D695C795C90120916A01A22FB0E02197B3
:1077100008F14091F3002091F20030E0342B203248
:10772000310559F0FC01259134912093F1003093FB
:10773000F1000296A11DB11DEACF2091E8002E7F35
:107740002093E8002091E80020FDECCF2EB321111A
:10775000F9CF83C080916601909167019093690190
:10776000809368012BC0823049F5209739F1209130
:10777000F3008091F20090E0922B809791F080913D
:10778000680190916901B0D38093F1008091680104
:107790009091690101969093690180936801219706
:1077A000E4CF8091E8008E7F8093E8008091E8002C
:1077B00080FDE5CF8EB38111F9CF4FC082E0809379
:1077C00000018091E8008E7F8093E80036C08091B0
:1077D000E800877F8093E8008091E80080FD04C086
:1077E0008EB38111F9CF39C0809176018093F10079
:1077F0001092F1001092F1001092F10080910001BE
:107800008093F1001092F100DCCF8091E800877F37
:107810008093E8001092760110C08091E800877F85
:107820008093E8008091E80080FD04C08EB3811150
:10783000F9CF13C08091000151CFDF91CF911F91FB
:107840000F91FF90EF90DF90CF90BF90AF909F90FF
:107850008F907F906F905F9040C1DF91CF911F918B
:107860000F91FF90EF90DF90CF90BF90AF909F90DF
:107870008F907F906F905F900895292F30E0223095
:10788000310559F02330310569F021303105F9F423
:1078900082E190E024E531E01EC08BE190E029E335
:1078A00031E019C0882349F0813061F0823079F4E9
:1078B00080E290E025E031E00EC084E090E025E336
:1078C00031E009C08CE090E027E231E004C080E0C4
:1078D00090E020E030E0FA013183208308950F9397
:1078E0001F93611520E772078105910570F441E04F
:1078F0008B019C010F77112722273327012B022BA5
:10790000032B09F040E0242F01C020E020FF14C029
:107910002FB7F89407B600FCFDCFF999FECF33E0FE
:10792000FB0130935700E89507B600FCFDCF91E1CD
:1079300090935700E8952FBF1F910F9108950F93D3
:107940001F93611520E772078105910570F441E0EE
:107950008B019C010F77112722273327012B022B44
:10796000032B09F040E0242F01C020E020FF14C0C9
:107970002FB7F89407B600FCFDCFF999FECF35E09C
:10798000FB0130935700E89507B600FCFDCF91E16D
:1079900090935700E8952FBF1F910F91089507B658
:1079A00000FCFDCFF999FECF21E0FB010A012093F5
:1079B0005700E8951124089521E2FC012093570017
:1079C0008491089529E0FC01209357008491089543
:1079D000E1E0F0E089E080935700849108959FB73B
:1079E000F89407B600FCFDCFF999FECF809529E009
:1079F000E1E0F0E0082E20935700E8959FBF08953E
:107A000020918101309182012617370748F06115D6
:107A1000710539F42091E8002E7F2093E80001C021
:107A2000B901FC0120E06115710571F18EB3882365
:107A3000E9F18530E9F18091E80083FD3BC0809158
:107A4000E80082FD2DC08091E80080FFECCF2091FE
:107A5000F3008091F20090E0922B6115710551F0D6
:107A60008032910538F421912093F1006150710921
:107A70000196F3CF21E0809709F020E08091E800A3
:107A80008E7F8093E800CFCF2111D0CF09C08EB375
:107A9000882361F0853061F08091E80083FD0AC0A1
:107AA0008091E80082FFF3CF80E0089582E008959E
:107AB00083E0089581E00895EBEEF0E0808181603D
:107AC0008083EDEEF0E010826093EC0040838091C3
:107AD000EE00881F8827881F089580917B0187FF0B
:107AE0000FC08091E80082FD04C08EB38111F9CFF0
:107AF00010C08091E8008B7F0AC08EB3882349F0C4
:107B00008091E80080FFF9CF8091E8008E7F80931C
:107B1000E800089562D069D0E0EEF0E080818160F5
:107B20008083E8EDF0E080818F77808319BCA7ED3A
:107B3000B0E08C918E7F8C9380818F7E80831092B9
:107B40007A0108950F931F93CF93DF9346D04DD0C2
:107B5000C8EDD0E088818F778883888180688883AA
:107B600088818F7D888319BC1EBA1092790100EE3E
:107B700010E0F80180818B7F808388818160888319
:107B800042E260E080E098DFE1EEF0E080818E7F0D
:107B90008083E2EEF0E08081816080838081886074
:107BA0008083F80180818E7F8083888180618883D3
:107BB000DF91CF911F910F910895E8EDF0E0808162
:107BC0008F7E8083E7EDF0E080818160808384E0B8
:107BD00082BF81E080937A01B5CFE8EDF0E080814B
:107BE0008E7F80831092E20008951092DA00109246
:107BF000E10008951F920F920FB60F9211242F9358
:107C00003F934F935F936F937F938F939F93AF9324
:107C1000BF93EF93FF938091DA0080FF1BC08091A8
:107C2000D80080FF17C08091DA008E7F8093DA0041
:107C30008091D90080FF0BC080E189BD82E189BDC0
:107C400009B400FEFDCF81E08EBB45D103C019BC55
:107C50001EBA41D18091E10080FF17C08091E200FF
:107C600080FF13C08091E2008E7F8093E2008091BC
:107C7000E20080618093E2008091D800806280936E
:107C8000D80019BC85E08EBB26D18091E10084FF2D
:107C90002EC08091E20084FF2AC080E189BD82E18C
:107CA00089BD09B400FEFDCF8091D8008F7D8093FF
:107CB000D8008091E1008F7E8093E1008091E20006
:107CC0008F7E8093E2008091E20081608093E200E9
:107CD00080917901882311F084E007C08091E3004E
:107CE00087FD02C081E001C083E08EBBF4D08091AB
:107CF000E10083FF21C08091E20083FF1DC08091DD
:107D0000E100877F8093E10082E08EBB10927901D1
:107D10008091E1008E7F8093E1008091E2008E7F70
:107D20008093E2008091E20080618093E20042E271
:107D300060E080E0C1DECFD0FF91EF91BF91AF91C5
:107D40009F918F917F916F915F914F913F912F9173
:107D50000F900FBE0F901F9018951F93CF93DF9336
:107D600000D0CDB7DEB7EBE7F1E08091F100819371
:107D700081E0E338F807C9F772DB8091E80083FF00
:107D800096C080917B0190917C019630E1F128F4BE
:107D9000992351F09530B1F08AC0983009F455C05C
:107DA000993009F464C083C08D7F803809F07FC0AA
:107DB0008091E800877F8093E8001092F100109294
:107DC000F1004EC0811173C010917D011F77809129
:107DD000E3008078812B8093E3008091E800877F27
:107DE0008093E8007ADE8091E80080FFFCCF8091EC
:107DF000E30080688093E300111102C082E001C0BB
:107E000083E08EBB54C08058823008F050C060912F
:107E10007F0170918001AE014F5F5F4F80917D01C6
:107E200090917E012ADDBC01892B09F440C090911C
:107E3000E800977F9093E80089819A81E1DD809145
:107E4000E8008B7F8093E80032C0803881F5809114
:107E5000E800877F8093E800809179018093F100AA
:107E60008091E8008E7F8093E80037DE20C081118A
:107E70001EC080917D0190917E0199270297BCF4EC
:107E80008091E800877F8093E80080917D01809356
:107E9000790123DE80917901811106C08091E30090
:107EA00087FD02C081E001C084E08EBB14D08091C8
:107EB000E80083FF0AC08091E800877F8093E80094
:107EC0008091EB0080628093EB000F900F90DF9128
:107ED000CF911F91089508958EB3882321F080914A
:107EE000E80083FD3ACF0895F999FECF92BD81BD98
:107EF000F89A992780B50895262FF999FECF92BD5B
:107F000081BDF89A019700B4021639F01FBA20BD5E
:107F10000FB6F894FA9AF99A0FBE0895F894FFCF25
:107F2000020120DCFB20034D004600360038002013
:107F30000042006F006F0074006C006F006100640D
:107F4000006500720000000C0364006900300069E5
:107F500000620000000403090409021B0001010083
:107F600080320904000000FE010200092103000024
:107F7000000C10011201100100000020EB03F42F8F
:067F8000000001020001F7
:107FA0009ECCCDCCFCCC08CD0DCD12CD18CD0895F6
:087FB000089508950895089555
:107FE000DFCFDFCFDFCFDFCFDFCFDFCFDFCFDFCF21
:087FF000DFCFDFCFDFCFDFCFD1
:087FF8000070000010DFFBDC4B
:040000030000700089
:00000001FF
