:100000000C9436020C947D020C947D020C947D02BB
:100010000C947D020C947D020C947D020C947D0264
:100020000C947D020C947D020C948F1F0C94612023
:100030000C94E4170C947D020C947D020C947D02C8
:100040000C947D020C947D020C947D020C947D0234
:100050000C942B080C9431180C947D020C947D02A6
:100060000C947D020C947D020C947D020C947D0214
:100070000C947D020C947D020C947D020C947D0204
:100080000C947D020C947D020C947D020C947D02F4
:100090000C947D020C947D020C947D020C947D02E4
:1000A0000C947D020C947D020C947D0293079507BD
:1000B0009A079D07A007A307A6078A0D8A0DBC0D06
:1000C000BC0D090E270E7F0F7F0F690EFE0E0F0F5E
:1000D0000F0F6F0F7F0F7F0F780F1F101F10311042
:1000E000311028103110311031101F101F102D1039
:1000F000311031102D10CE20F520ED21F520ED210D
:1001000041216421ED21BB21CA2129001E001F00CD
:1001100020002100220023002400250026002700C3
:100120002D002E002A0049004B002B0014001A005D
:100130000800150017001C0018000C001200130026
:100140002F00300031004C004E00354204001600F4
:10015000070009000A000B000D000E000F0033001D
:1001600034002800E1001D001B00060019000500F6
:1001700011001000360037003800E5005200E000A2
:10018000E300E2002C000151E600E40050005100C1
:100190004F00000000000000000035003A003B0066
:1001A0003C003D003E003F00400041004200430053
:1001B000440045002A00A9004A0001000100010096
:1001C00052000100010001000100010001000100D6
:1001D0000100C05C0100AA004D00010001005000B8
:1001E00051004F0001000100010001000100010069
:1001F00001000100010001000100010001000100F7
:100200000100A8000100010001000100A800010098
:10021000010001000100010001000100AC00AE007E
:10022000AB00000000000000000035003A003B0079
:100230003C003D003E003F004000410042004300C2
:10024000440045002A00A9004A0001000100010005
:1002500052000100010001002400250026000100D9
:10026000010001000100AA004D0001000100500042
:1002700051004F0001000100210022002300010075
:100280000100010001000100010001000100010066
:1002900027001E001F00200001000100A80001002F
:1002A000010001000100010001000100AC00AE00EE
:1002B000AB00000000000000000000000000000093
:1002C000000000000001010203040506080A0C0FEB
:1002D0001114181C2024292E33393F464C535B62DD
:1002E0006A7179818A929AA2AAB2B9C1C8CFD5DCC3
:1002F000E1E7EBF0F4F7FAFCFDFEFFFEFDFCFAF798
:10030000F4F0EBE7E1DCD5CFC8C1B9B2AAA29A926A
:100310008A8179716A625B534C463F39332E2924B6
:10032000201C1814110F0C0A080605040302010111
:100330000000000000000000000004033000000086
:100340000A034D0046003600380000000C0364002C
:10035000690030006900620000000403090409021A
:100360003B00020100A0FA090400000103010100A2
:100370000921110100012240000705810308000A3C
:1003800009040100010300000009211101000122FC
:1003900081000705820320000A12011001000000FD
:1003A00008EBCE100501010102030105010902A1BC
:1003B0000185020901A1000509190129051500257A
:1003C00001950575018102950175038101050109FA
:1003D0003009311581257F95027508810609381588
:1003E00081257F950175088106050C0A3802158163
:1003F000257F950175088106C0C005010980A1010E
:10040000850319012AB700150126B700950175105B
:100410008100C0050C0901A101850419012AA0026F
:10042000150126A002950175108100C0050109067D
:10043000A101050719E029E71500250195087501B7
:1004400081029501750881010507190029FF150032
:1004500026FF0095067508810005081901290595F4
:100460000575019102950175039101C011241FBE0C
:10047000CFEFDAE0DEBFCDBF04B603FE27C0809128
:10048000770290917802A0917902B0917A02873038
:10049000904BA740B04BD1F41092770210927802A3
:1004A0001092790210927A0214BE84B7877F84BFBB
:1004B0000FB6F894A89580916000886180936000E1
:1004C000109260000FBEE0E0F8E3099511E0A0E0B3
:1004D000B1E0EEEBF5E402C005900D92AA38B10749
:1004E000D9F722E0AAE8B1E001C01D92A737B20710
:1004F000E1F70E94BE1C0C94DD220C9400000C94C9
:10050000610581E0089581E008950C9483020895C7
:100510000C9487021F93CF93DF9300D000D01F92DB
:10052000CDB7DEB749835A836B833091AB018981A4
:100530009A81311114C0662359F0222349F00E9498
:100540005815182F682F89819A810E94011503C0C0
:100550000E942C15182F69817A81812F04C00E9476
:10056000581569817A810F900F900F900F900F901E
:10057000DF91CF911F910C944403FC01262F408101
:1005800051816281738184810C948A02CF93DF93BD
:10059000EC0160E00E94BD02BE01DF91CF910C949E
:1005A00088020E948A16811102C00E9433170E949D
:1005B0009A080C947F020C945F0508950C94DD0258
:1005C00081E008950C94E002CF93C82F0E94DE02D0
:1005D0008C2F0E94E202CF91089508950E940D1081
:1005E0000E94ED022FEF84E39CE021508040904078
:1005F000E1F700C000000C9457180F931F93CF939E
:10060000DF93EC0161E00E94BD028C01BE010E94FB
:100610008502882379F1BE01C8010E9484078823DE
:1006200049F1BE01C8010E942409882319F1BE01C5
:10063000C8010E9465098823E9F0BE01C8010E9433
:10064000900A8823B9F08A81882369F001158CE526
:10065000180731F00E3D1C4531F40E9433170AC0D3
:100660000E94EE0207C0CE01DF91CF911F910F9142
:100670000C94810280E0DF91CF911F910F9108953A
:1006800080E090E00895089528E4829FC00111243D
:10069000FC0129E0729FE00DF11D1124E60FF11D10
:1006A000EE0FFF1FE65FFE4F859194910895880F2E
:1006B000991FFC01E654FD4F859194910895CF93C5
:1006C000DF930E9444030E947704EC01811590455A
:1006D00008F041C0C11580E4D80708F0D1C0C83E79
:1006E000D10510F5C03ED10508F0FDC0C83AD105CE
:1006F00078F4C53AD10508F0A2C0C130D10509F49B
:10070000F2C008F4EEC0C430D10508F0ECC0E9C076
:10071000CF3BD10508F49BC0C03CD10508F4E1C033
:10072000CE01805C91099EC0C11590E2D90758F4B2
:10073000C11521E0D20708F0D6C0C03FD10508F4AA
:10074000D0C0D065D0C0C11580E3D80708F08EC0F6
:10075000CE019F7087C0C11595E5D90708F043C049
:10076000C11524E5D20708F0A2C0C11582E5D8075B
:1007700008F5C11591E5D90708F085C0CE0174E0F0
:10078000969587957A95E1F783709C2F937021E079
:1007900030E002C0220F331F9A95E2F73C68382BF5
:1007A000CF70C695C69580E2C89FE0011124C22B88
:1007B000D32B99C09E01237033278C2F8695869565
:1007C000C115D34508F064C0C1E0D0E002C0CC0F31
:1007D000DD1F2A95E2F720E2829FC0011124C82B79
:1007E000D92BDC6880C0C11529E5D207A0F4C1155A
:1007F00088E5D80708F060C0C11596E5D90708F06C
:1008000070C08C2F0E940B058F71C82FD0E0DC2F99
:10081000CC27D06268C0C1152AE5D20708F451C0C0
:10082000CE0190568115904208F05BC08D2F8F71DC
:100830000E940B05DD27D0628F71D82B54C0C55A9A
:10084000D0E0CC5BDE4FC881D0E0D0644CC0C85A49
:10085000D0E0CC0FDD1FCA5EDE4F0990D881C02DDD
:10086000D46441C00E945703EC013DC0CE019927DA
:10087000D3FF03C0EC01D86C36C0EC01D06C33C0A0
:10088000DF70D06A30C0DC2FCC27C16FD06A2BC09C
:10089000C1E0D0E002C0CC0FDD1F2A95E2F720E2D4
:1008A000829FC0011124C82BD92BDA681CC0DC2F11
:1008B000CC27C46FD06A17C0DC2FCC27C06FD06A9A
:1008C00012C08C2F8F700E940B0594E0D695C795AF
:1008D0009A95E1F7CF70D0E0DC2FCC27D069C82BF8
:1008E00002C0C0E0D0E0CE01DF91CF910895823800
:1008F000910569F1B0F48133910509F46DC048F4B4
:100900008932910509F463C08A32910509F469C0FE
:1009100008958533910509F455C089339105B9F0DF
:100920000895833E910569F138F4803E9105B1F058
:10093000823E910509F10895863E9105A9F1873E11
:100940009105B9F1843E910509F064C023C020915E
:10095000680220FD4FC021FD4DC0089580916802BE
:1009600080FD44C08091690280FF44C0809168028C
:1009700084FD42C083EE4DC08091680282FF38C082
:10098000F5CF8091680282FD33C08091690280FDBD
:1009900031C0ECCF8091690281FF32C08091680242
:1009A00084FD2AC087EE35C08091680283FF26C08F
:1009B000F5CF8091680283FD21C08091690281FD9D
:1009C0001FC0ECCF8091680285FD1CC01DC08091C6
:1009D000680285FD19C016C08091680286FD16C0A8
:1009E00017C08091680286FD13C010C089E311C052
:1009F00082EE0FC080EE0DC080E00BC086EE09C015
:100A000084EE07C089E205C085E303C08AE201C025
:100A100081E390E008959091680292FF0DC0282F25
:100A20002871283019F4877F846006C0282F24712C
:100A3000243011F48B7F886093FF0DC0282F28711C
:100A4000283119F4877E846106C0282F247124314F
:100A500011F48B7E88612091690220FF0DC0382F30
:100A60003871383019F4877F816006C0382F3171B2
:100A7000313011F48E7F886021FF0DC0282F28713E
:100A8000283119F4877E816106C0282F2171213118
:100A900011F48E7E886194FD877E0895E82FF0E042
:100AA000EE0FFF1FEF5AFD4F808191810895089549
:100AB00080EA8A95F1F7089508950C945C050C94EA
:100AC0005D050C945C05CF93DF93A0E5B1E048E5AC
:100AD00051E061E070E08D91E82FE295EF70F0E079
:100AE00021A18F70EB0102C0CC0FDD1F8A95E2F7C8
:100AF000CE019C2F9095922391A392A1892B82A342
:100B00004A175B0741F7A7E4B1E040E551E061E037
:100B100070E08D91E82FE295EF70F0E021A18F70E9
:100B2000EB0102C0CC0FDD1F8A95E2F7CE019C2FAE
:100B30009095922391A392A1892B82A34A175B07D8
:100B400041F7E1E4F2E0A1E5B2E081E592E0119243
:100B500011921D921D928E179F07C9F788E00E947F
:100B60004206DF91CF910C94D1026F927F928F92C7
:100B70009F92AF92BF92CF92DF92EF92FF920F932C
:100B80001F93CF93DF9380E5C82E81E0D82E01E438
:100B900012E091E5A92E92E0B92E712C882483945D
:100BA000912CF60181916F01C82FC295CF70D0E0D2
:100BB00099A18F70740101C0EE0C8A95EAF7892F14
:100BC0008E2989A38AA16E2C609486218AA30E9413
:100BD0005805E7E4F1E040E050E020E030E06191CA
:100BE000A62FA295AF70B0E090968C9190E06F70B8
:100BF00002C0959587956A95E2F780FD08C0C4010B
:100C0000042E02C0880F991F0A94E2F702C080E008
:100C100090E0282B392B4F5F5F4F49305105F9F693
:100C200089A1682269A28AA1E82AEAA2F801808142
:100C300091812817390721F03183208381E001C099
:100C400080E0782A0E5F1F4FA016B10609F0A9CFE9
:100C5000272D48E061E572E081E492E00E944306BE
:100C60000E94DB02872DDF91CF911F910F91FF90A2
:100C7000EF90DF90CF90BF90AF909F908F907F903C
:100C80006F9008950895FF920F931F93CF93DF9372
:100C9000F82E092F162FD72FC42F222349F081E0D9
:100CA00080938C010E94161890938B0180938A0187
:100CB00080918C018823D9F080918A0190918B01D9
:100CC0000E942218069798F0EF2DF02FA12FBD2F2C
:100CD00080E090E04C2F50E08417950734F4219188
:100CE00031912D933D930196F7CF10928C01DF91B6
:100CF000CF911F910F91FF90089580916102869589
:100D00008695869508958091610281FD07C0826075
:100D1000809361020E94BF160C941608089580917A
:100D2000610281FF07C08D7F809361020E94BF1620
:100D30000C94220808958091610281FD0C948F0625
:100D40000C9483068091610286958170089580914C
:100D5000000108950E948A16811102C00E94331773
:100D60000E94BB1680936102282F26952695269512
:100D700030E02430310524F087708861809361026F
:100D80008091610280FF04C086958695869501C09A
:100D900080E00C94EC0720916102822F8695869565
:100DA0008695482F50E04330510554F48F5F982FBB
:100DB000990F990F990F822F8770892B8093610269
:100DC000809161028160809361020E94BF168091D0
:100DD00061028695869586950C94EC078091610258
:100DE000982F969596959695A1F0915E990F990FEB
:100DF000990F8770892B80936102887F91E009F4B5
:100E000090E08091610290FB80F9809361020E94E2
:100E1000BF16809161028695869586950C94EC07A5
:100E20008091610280FD13C08160809361028130F6
:100E300019F489E080936102809161020E94BF16DB
:100E4000809161028695869586950C94EC070895AD
:100E50008091610280FF08C08E7F809361020E94B2
:100E6000BF1680E00C94EC0708958091610280FD2C
:100E70000C9428070C94100790916102892F869595
:100E8000869586958F5F8F719770843038F4880FC0
:100E9000880F880F892B8093610202C090936102B2
:100EA00080916102887F91E009F490E08091610275
:100EB00090FB80F9809361020E94BF1680916102CD
:100EC0008695869586950C94EC07843008F083E02F
:100ED000909161029770282F220F220F220F922BE0
:100EE00090936102987F21E009F420E090916102E3
:100EF00020FB90F9909361020C94EC070E94650727
:100F0000809161020C94BF16FC01DB0112968C915A
:100F10008823F9F0EB5BFC45E730F105D8F4EA5A99
:100F2000FF4F0C947B2283E001C080E00E947E078B
:100F300080E008950E94EE06FBCF0E94CB06F8CF1A
:100F40000E943507F5CF0E943C07F2CF0E949B0616
:100F5000EFCF81E00895259A2D9808952D98089552
:100F6000CF92DF92EF92FF928C3724E1920728F420
:100F700069E070E00E94312229C0A0E0B0E08A5010
:100F8000974DAF4FBF4F6627782F892F9A2F25EFA8
:100F900038E241E050E00E94592269017A01CA0119
:100FA000B9010E9421229B01AC01C701B6010E9438
:100FB0002122BB27A92F982F872F009721E0A20776
:100FC000B10511F0BC0102C06FEF7FEFCB01FF90C4
:100FD000EF90DF90CF900895CF93C82F843050F4D6
:100FE000811109C0809180008F77809380000E94DA
:100FF000AE0706C0C3E080918000806880938000C7
:101000002C2F30E0AFEFBFEF0E94812223E030E0D1
:1010100040E050E00E945922C9010E94B00790931D
:10102000890080938800CF910895089510928E01D1
:1010300010928D0110928F01EFE6F0E080818160C7
:1010400080830895EFE6F0E080818E7F80830E94A8
:101050007D060C94EC071F920F920FB60F9211248D
:101060002F933F934F935F936F937F938F939F93B0
:10107000AF93BF93CF93EF93FF930E94A706409146
:101080008D0150918E014F5F5F4F94EF899F9001CA
:101090001124CA01B9010E94312290938E018093DC
:1010A0008D01B901660F672F661F770B71950E943E
:1010B00031226F7780918F01823019F4603451F4BE
:1010C00004C0813039F46F3729F480916F008E7F2E
:1010D00080936F00E62FF0E0E654FD4FC4910E942C
:1010E0007D06282F41E051E0C49FC001C59F900DAF
:1010F000112463E070E00E943122269FC001279FE7
:10110000900D11240E94B00790938900809388006D
:10111000FF91EF91CF91BF91AF919F918F917F916F
:101120006F915F914F913F912F910F900FBE0F9054
:101130001F9018950E94AB0782E88093800089E198
:10114000809381008FEF9FEF9093870080938600BC
:101150000E94AA060E94A20681110C941608089506
:101160000F931F93CF93DF93C62FD42F122FFC0121
:1011700082818823C9F0609392010E94161890938F
:1011800091018093900180E28C0F883008F057C065
:10119000C77081E001C0880FCA95EAF7DF91CF914F
:1011A0001F910F910C94460D80919201681330C0ED
:1011B00080919001909191010E942218883C9105A4
:1011C00038F500E20D0FCD17B9F080E28C0F8830B2
:1011D00040F4C77081E001C0880FCA95EAF70E9409
:1011E0004D0D083028F581E09D2F977001C0880FC4
:1011F0009A95EAF70E94460D812F0E94330D083020
:10120000F0F4D77081E001C0880FDA95EAF70AC0E0
:1012100080E28C0F883098F4C77081E001C0880F9D
:10122000CA95EAF7DF91CF911F910F910C944D0D64
:10123000812FDF91CF911F910F910C94330DDF918E
:10124000CF911F910F9108959C01CB01233F4CE555
:101250003407F9F078F4283DFCE53F07B9F0293D63
:101260004CE5340711F1273D3C4531F526E241EECE
:1012700061EE1EC0253FFCE53F0799F070F0263F68
:101280003C45D1F427E245EE66EE12C027E245EE7A
:101290000EC026E241EE60EE0BC027E245EE64EEA2
:1012A00007C026E241EE62EE03C028E241E065EEAF
:1012B0000E94B00880E00895FC018281882319F023
:1012C00010929201089581E00895CF93DF93EC018D
:1012D000FB018281882309F41FC1C230FCE5DF07CE
:1012E00008F41BC1C6319CE5D90738F09E012A5F7E
:1012F0003C452930310508F010C10E949D1690939D
:10130000690280936802C031ECE5DE0709F4C3C0CE
:1013100008F041C0C8308CE5D80709F49AC0F0F451
:10132000C430ECE5DE0709F487C068F4C2308CE510
:10133000D80709F477C0C330DC4509F0E3C08091D9
:101340006802826076C0C630ECE5DE0709F46EC044
:1013500008F07BC08091680288606BC0CC308CE55F
:10136000D80709F485C068F4CA30ECE5DE0709F453
:1013700074C008F079C00E940D10809168028068E6
:1013800058C0CE308CE5D80709F476C008F07FC08D
:10139000809168028BC0CB3FECE5DE0709F44FC0BB
:1013A00018F5C3318CE5D80709F47DC078F4C13154
:1013B000ECE5DE0709F473C0C231DC4509F0A2C0D8
:1013C0000E940D10809168028F7733C0C5318CE583
:1013D000D80709F472C008F486C0CA3FDC4509F09A
:1013E00091C0809169023EC0CF3FFCE5DF0709F460
:1013F0005FC058F4CD3F9CE5D90709F444C008F418
:101400003FC08091690282602DC0C130FDE5DF07D9
:1014100009F475C008F45DC0C230DD4509F072C042
:1014200080E06EC080916802816003C08091680294
:1014300080618093680266C08091680211C08091CB
:1014400069028260809369025DC080916802806257
:10145000F0CF809168028064ECCF80916802886050
:101460008460E7CF8160EECF809168028E7FE1CF0C
:10147000809168028D7FDDCF80916802877FD9CF10
:101480008091690218C0809169028D7FDBCF8091C5
:1014900068028F7ECECF809168028F7DCACF809107
:1014A00068028F7BC6CF80916802877F8B7FC1CF18
:1014B000809169028D7F8E7FC5CF8091680282FB0B
:1014C000222720F991E0922790FB82F990FB83F983
:1014D000B0CF80916902982F909591708E7F892B63
:1014E00090FB81F9AFCF0E940D108091680287FBBD
:1014F000222720F991E0922790FB87F99ACF81E08B
:101500000E94351780916802909169020E94AE1680
:101510000E940D1080E001C081E0DF91CF9108951D
:10152000CF93DF9386319C4541F5EB010E94D9159D
:10153000982F8A812091010130910201882379F04E
:101540009A7A81E009F480E080939301911102C0BE
:1015500069E201C065E3C9010E947C170AC080915D
:101560009301811102C069E201C065E3C9010E94D3
:101570007E170E94271680E001C081E0DF91CF91A5
:10158000089590939901809398010895E0919801AE
:10159000F0919901309721F00190F081E02D0994AC
:1015A00080E00895E0919801F0919901309721F041
:1015B0000280F381E02D09940895E0919801F09163
:1015C0009901309739F022E0DC012C930480F581F9
:1015D000E02D0994089520919601309197012817E4
:1015E000390771F09093970180939601E0919801EB
:1015F000F0919901309721F00680F781E02D099450
:10160000089520919401309195012817390771F0C0
:101610009093950180939401E0919801F091990144
:10162000309721F00084F185E02D0994089585B765
:10163000806885BF85B7806885BF089508950C943C
:101640001E0B0C941F0B0C941E0B0C941E0B0E9473
:10165000170B0E94230B0C94210B81E008950C942E
:101660002D0B0E940D180E9463050E947B180E949A
:10167000AA060C94250B7F928F929F92AF92BF92F5
:10168000CF92DF92EF92FF920F931F93CF93DF934E
:10169000CDB7DEB72A970FB6F894DEBF0FBECDBF29
:1016A0000E94B5050E942F0B811111C08FEF898315
:1016B0008A831B820E9416188160782F9D838C83F9
:1016C00049815A816B818D810E94ED0B4FC04BE99E
:1016D000A42E41E0B42E00E010E0702E802F0E9476
:1016E0004E056C01F501819091905F018826992645
:1016F0008114910431F40F5F1F4F0830110569F711
:10170000D5CF8091260281FD0E94570580E0EE240E
:10171000E394F12C94012E213F21232B09F18E8398
:101720007F82CE20DF2081E0CD2809F480E0888709
:101730000E9416188160782F9A8789874E815F8171
:1017400068858A850E94ED0B000F111FF801E55690
:10175000FE4F80819181E826F926F182E08206C061
:101760008F5FEE0CFF1C8930A9F6C5CF0E941508CB
:101770000E940D1A0E94C60A90919A018917C9F019
:101780000E94C60A80939A012A960FB6F894DEBF8B
:101790000FBECDBFDF91CF911F910F91FF90EF90C2
:1017A000DF90CF90BF90AF909F908F907F900C94E0
:1017B000E4022A960FB6F894DEBF0FBECDBFDF91CC
:1017C000CF911F910F91FF90EF90DF90CF90BF903E
:1017D000AF909F908F907F900895CF93DF93CDB778
:1017E000DEB72B970FB6F894DEBF0FBECDBF4F8389
:1017F000588769877A878B87DE01119686E0FD011D
:1018000011928A95E9F785E0FE01379601900D92D5
:101810008A95E1F749815A816B817C818D819E8116
:101820000E94C6122B960FB6F894DEBF0FBECDBF36
:10183000DF91CF910895FC01808191810E949A15DA
:101840000895CF93882309F4A4C0C82F8238C1F427
:101850000E94C60A81FD9DC069E3809101019091BB
:1018600002010E947C170E9427162FEF81EE94E060
:10187000215080409040E1F700C0000069E319C0AA
:10188000833801F50E94C60A80FD83C063E580911C
:101890000101909102010E947C170E9427162FEFF0
:1018A00081EE94E0215080409040E1F700C00000BC
:1018B00063E580910101909102010E947E17CF9112
:1018C0000C9427168438C1F40E94C60A82FD61C0B8
:1018D00067E480910101909102010E947C170E94AF
:1018E00027162FEF81EE94E0215080409040E1F7E1
:1018F00000C0000067E4DDCF8CEF8C0F813AD0F49C
:101900006C2F80910101909102010E94461788235B
:1019100049F06C2F80910101909102010E947E1785
:101920000E9427166C2F80910101909102010E9464
:101930007C17C5CF80E28C0F883048F4C77081E0F7
:1019400001C0880FCA95EAF70E94DC15B8CFEBE515
:10195000EC0FE33040F4F0E0EA57FE4F808190E076
:10196000CF910C94EB0AE8E5EC0FE73150F4F0E08E
:10197000EE0FFF1FE85AFE4F80819181CF910C94AA
:10198000010BC03F30F08C2F0E941519CF910C94A1
:10199000021ACF910895882309F464C0823879F43B
:1019A0000E94C60A81FF5EC069E3809101019091A7
:1019B00002010E947C170E94271669E310C0833839
:1019C000B1F40E94C60A80FF4DC063E58091010119
:1019D000909102010E947C170E94271663E5809176
:1019E0000101909102010E947E170C942716843801
:1019F00079F40E94C60A82FF35C067E48091010134
:101A0000909102010E947C170E94271667E4E7CF9D
:101A10009CEF980F913A10F4682FE1CF90E2980F65
:101A2000983050F4877091E001C0990F8A95EAF7D9
:101A3000892F0E94E215D9CF9BE5980F933020F4AF
:101A400080E090E00C94EB0A98E5980F973120F431
:101A500080E090E00C94010B803F20F00E947D1903
:101A60000C94021A0895CF93C82F0E94210CC933F9
:101A700049F42FEF87EE93E0215080409040E1F74A
:101A800000C000008C2FCF910C94CB0C882321F048
:101A90000E94DC150C9427160895882321F00E94DB
:101AA000E2150C9427160895CF92DF92EF92FF92E1
:101AB0000F931F93CF93DF937C01062FC72FFC0159
:101AC000158112951F70D281D1110E94F9150E94C3
:101AD000D215882399F0DD2389F08C2F807F803404
:101AE00021F080E2800F883048F082E00E94711679
:101AF0000E94D21591E0D82ED92601C0D12CCC2E2F
:101B0000C2948FE0C8228C2D90E0FC01E35AFF4F75
:101B10000C947B228C2F807FCF70882311F0C2958C
:101B2000C07FDD2399F0CC2309F4C4C180E2800F8B
:101B3000883010F0011104C08C2F0E94DC1503C006
:101B40008C2F0E94EC150E942716B4C1802F0E9492
:101B5000CB0CCC2309F4D3C180E2800F883010F085
:101B6000011104C08C2F0E94E21503C08C2F0E942B
:101B7000F2150E942716C3C18C2F807FCF70803250
:101B800011F0C295C07F002319F00130C9F022C0C6
:101B9000DD2371F0112341F0113031F40E940C1655
:101BA0008C2B0E941416ABC10E940C168C2B1DC0EE
:101BB000112319F0113009F4A2C10E941D1625C08D
:101BC000DD2321F0163008F09AC10EC0153008F060
:101BD00096C11BC0DD2361F0112331F0F70185812F
:101BE00080FF68C18F7085838C2F0E94460D87C14E
:101BF000112359F0093309F06EC1FFEF27EE83E09E
:101C0000F15020408040E1F764C18C2F0E944D0DBF
:101C100076C18C2F86958695837019F0813061F09E
:101C20006EC1DD2321F0802F9C2F937002C080E0D5
:101C300090E00E94EB0A6BC1DD2321F0802F9C2FE6
:101C4000937002C080E090E00E94010B60C1DD2330
:101C5000F9F0053F51F0063F71F0043FA9F480917F
:101C600062029091630281600BC080916202909148
:101C70006302826005C08091620290916302846079
:101C80009093630280936202802F0E9415191EC0F8
:101C9000053F51F0063F71F0043FA9F480916202C4
:101CA000909163028E7F0BC08091620290916302DB
:101CB0008D7F05C080916202909163028B7F90932B
:101CC000630280936202802F0E947D190E94021A93
:101CD0001EC18C2F837009F045C0D11114C1402F53
:101CE000429546954770440F440F602F6F70862FC2
:101CF00090E0A0E0B0E0042E04C0880F991FAA1F56
:101D0000BB1F0A94D2F704FF10C00FE010E020E0E0
:101D100030E004C0000F111F221F331F4A95D2F775
:101D2000009510952095309503C000E010E09801D3
:101D3000C695C695C370BC01CD01602B712B822B5B
:101D4000932BC23049F058F4C13019F00E94171497
:101D5000DAC00E940514D7C00E942914D4C00E9482
:101D60000314D1C0DD2319F08C2F817001C086953A
:101D7000882309F4C8C0402F429546954770440F08
:101D8000440F602F6F70862F90E0A0E0B0E0042E2B
:101D900004C0880F991FAA1FBB1F0A94D2F704FF23
:101DA00010C00FE010E020E030E004C0000F111F71
:101DB000221F331F4A95D2F7009510952095309534
:101DC00003C000E010E09801C695C695C370BC0141
:101DD000CD01602B712B822B932BC23049F058F42C
:101DE000C13019F00E94DC148EC00E94CA148BC04E
:101DF0000E94EE1488C00E943D1485C0CF70DD2380
:101E000039F08C2F0E946314802F0E94460D7BC0F6
:101E1000802F0E944D0D8C2F0E94841474C0023FAD
:101E200001F128F4003F41F0013FA1F03FC0033F22
:101E3000F9F0043F39F13AC0DD2341F0153008F0E4
:101E40005EC08C2F8F710E94A91459C0163008F003
:101E500056C0F7CFDD2339F08C2F8F710E946314A9
:101E60004EC0DD23C9F38C2F8F710E94841447C0AC
:101E7000DD2329F08C2F8F710E944E1440C00E94E8
:101E800049143DC0DD2349F0CF718C2F0E946314AB
:101E900063E08C2F0E945C1632C081E00E947116B4
:101EA000123068F182E00E94711629C0DD2331F002
:101EB000112391F2802F0E94210C21C0112399F24D
:101EC000093349F49FEFE7EEF3E09150E040F04032
:101ED000E1F700C00000802F0E94CB0C10C04C2FF7
:101EE0004F70602FC7010E9440030E9474130FC0FF
:101EF0004C2F4F70602FC7010E94430308C088EF2A
:101F00008C0D843020F40E94C60A0E94E402DD2079
:101F1000C9F00E94CE1580FD15C0F70112820E9403
:101F2000C8150E946314C7010E94C30F0E94C81500
:101F3000DF91CF911F910F91FF90EF90DF90CF90A5
:101F40000C948414DF91CF911F910F91FF90EF902B
:101F5000DF90CF9008950F931F93CF93DF93EC0101
:101F6000688179818A810E94A5158C010E940015E3
:101F70000E94F113B801CE010E94540DDF91CF9160
:101F80001F910F910895CF93DF93EC019881898180
:101F90002B813C81232B31F08F3F31F481E09F3F37
:101FA00019F403C081E001C080E080FD19C0CE01BA
:101FB0000E94FD0281110CC00E94D215882381F07D
:101FC0008A81882369F082E0DF91CF910C947116A9
:101FD000CE010E94AB0FCE01DF91CF910C94C602CF
:101FE000DF91CF9108950E94F9150E9409160E9471
:101FF00027160E942C1B0E94021A80E090E00E948B
:10200000EB0A80E090E00C94010B8091010190912B
:1020100002010E9480170C94F30F0E94E9150C94A2
:102020000510E92FE295EF704E2F50E0FA0132973C
:10203000EE30F105B0F4E359FF4F0C947B22803F62
:1020400091F018F4883E68F40EC0843F51F40BC040
:10205000883E48F0813F29F406C093FB882780F929
:10206000089580E0089581E008950E949A150E94E5
:1020700011100895CF93DF9300D000D01F92CDB7F9
:10208000DEB70F900F900F900F900F90DF91CF91D0
:102090000895CF93DF9300D000D000D0CDB7DEB746
:1020A00026960FB6F894DEBF0FBECDBFDF91CF915D
:1020B00008951F93CF93DF93C091AC0116E08091F8
:1020C000AD01C81799F0D0E01C9FF0011D9FF00DE5
:1020D0001124E255FE4F40815181628173818481D8
:1020E00095810E9449102196C770E9CFDF91CF9169
:1020F0001F9108954091DE015091DF016091E00150
:102100007091E1018091E2019091E3010C944910FA
:102110000F931F93CF93DF938091E30182958F708C
:1021200009F05DC08091E001882309F458C08091D6
:10213000AC011091AD016091DE017091DF01C091A1
:10214000E101D091E20191E06F3F09F090E0292F89
:1021500006E0811709F443C0209721F07F3F21F06A
:1021600030E003C031E001C0322F90E030FD34C0D8
:10217000089FF001099FF00D1124DF01A255BE4F09
:1021800011963C911197371327C03C91361324C008
:1021900012963C91129731111FC013964D915C918C
:1021A00014974C1B5D0B483C5105B0F48091E30142
:1021B0008F7080618093E301ED54FE4F80818F70BA
:1021C000806180838EED91E00E94C30FDF91CF91FB
:1021D0001F910F910C94591001968770BACFDF911F
:1021E000CF911F910F9108959F92AF92BF92CF927E
:1021F000DF92EF92FF920F931F93CF93DF93CDB7B0
:10220000DEB761970FB6F894DEBF0FBECDBF8C016D
:1022100085E0F801DE011D9601900D928A95E1F7A7
:10222000F80140815181E2809091DE016091DF01EF
:102230002091E1013091E2012115310531F06F3F2C
:1022400031F481E09F3F19F403C081E001C080E0D8
:10225000F82FF1709F2E80FD46C1F801A380B48055
:102260008EEDC82E81E0D82EF090E001F501E21B42
:10227000F30BFF2009F4DFC08091E301E83CF10596
:1022800008F09BC0282F207F09F052C0561313C0BE
:10229000491311C0FE2CE1100EC08F708061809335
:1022A000E3010E947A10C6010E94C30F8091E301EE
:1022B000F801858358C1AB2831F05F3F31F481E0EC
:1022C0004F3F19F403C081E001C080E080FD03C0EE
:1022D00081E08E2502C080E090E0F82FF170FF2EA3
:1022E00080FF1CC08091AC012091AD0136E08217C7
:1022F00009F417C190E0389FF001399FF00D1124C7
:10230000E255FE4F6181561306C06081461303C03B
:102310006281E61203C001968770E9CFFE2CEE20A1
:1023200009F421C18091E30181608093E3015AC0E7
:10233000561306C0491304C0E11002C0F8019FC043
:102340004D875E878D859E850E943510882379F1A3
:10235000EE2069F12091E301822F82958F7090E049
:10236000029774F08091DE019091DF0198878F834E
:102370001986BB86AA862C87CE0107960E94C30FBA
:1023800086E0F801AEEDB1E001900D928A95E1F79B
:102390000E9488100E947A100DC0561729F14D87AF
:1023A0005E878D859E850E94351081112CC0C801E5
:1023B0000E94C30FFF24F394D6C0282F207F69F713
:1023C0007A2DB98AA88A6E2D89890E943A108EEDDD
:1023D00091E00E94C30F86E0F60111928A95E9F719
:1023E0000E947A10F12CBFC04913D9CFE110D7CF8A
:1023F000F8018583C8010E94C30F86E0F60111929F
:102400008A95E9F7B0C0EE2091F22091E301822F86
:1024100082958F7090E002970CF4B2CF8091DE012C
:102420009091DF019A8389831B82BD82AC822E83C7
:10243000CE010196A3CFE83CF10508F047C0FE2C81
:10244000EE2009F4B4CF561330C049132EC02091AA
:10245000E30120FD21C0822F82958F70482F50E02C
:1024600041155105C9F0F80125834F30510541F060
:102470008F5F982F9295907F822F8F70892B858305
:10248000C8010E94C30F86E0F801AEEDB1E00190F3
:102490000D928A95E1F742C086E0F801AEEDB1E019
:1024A00001900D928A95E1F75EC04D875E878D851C
:1024B0009E850E943510811163CF8091E301816078
:1024C0008093E301C8010E94C30F4DC07A2DB98AE1
:1024D000A88A6E2D89890E943A1086E0F601119231
:1024E0008A95E9F71BC0EE2009F461CF4D875E871E
:1024F0008D859E850E943510F82E882309F457CFCC
:1025000086E0F801AEEDB1E001900D928A95E1F719
:102510008EED91E00E941B0C0E9488100E947A10A0
:1025200022C04D875E878D859E850E949A15292F32
:1025300022952F70223028F49F7039F0811105C048
:102540000BC0243028F49F7049F4805E883020F05E
:10255000C8010E94C30F9F2CF92C05C0F80195817A
:10256000907F99F7F9CF8F2D61960FB6F894DEBF63
:102570000FBECDBFDF91CF911F910F91FF90EF90D4
:10258000DF90CF90BF90AF909F9008951F93CF930F
:10259000DF93CDB7DEB72C970FB6F894DEBF0FBE32
:1025A000CDBF4F83588769877A878B879C87CE01F9
:1025B00007960E94F4108823D1F09F8188852A8590
:1025C0003B85232B31F08F3F31F481E09F3F19F49D
:1025D00003C081E001C080E080FD47C04F81588585
:1025E00069857A858B859C850E9449103EC086E06E
:1025F000FE013796DE01119601900D928A95E1F762
:10260000FF81E8856A857B856115710531F0EF3FB3
:1026100031F481E0FF3F19F403C081E001C080E0A4
:1026200080FD23C02091AD0130E0C9010196877083
:1026300099274091AC0150E084179507F1F1F98397
:10264000EA837D836C8396E0929FD001939FB00DC7
:102650001124A255BE4FFE01319601900D929A951C
:10266000E1F78093AD010E94591016E08091AC0112
:102670009091AD01891771F1189FC0011124825505
:102680009E4F0E94F410882329F1E091AC011E9F17
:10269000F0011124E255FE4F408151816281738126
:1026A000848195810E9449108091AC0190E001964F
:1026B000877099278093AC01D9CF0E940D1010929A
:1026C000AD011092AC01EEEDF1E086E0DF011D926C
:1026D0008A95E9F72C960FB6F894DEBF0FBECDBFF2
:1026E000DF91CF911F910895EF92FF920F931F9367
:1026F000CF93DF938C01892B09F46CC0F12CEE246D
:10270000E394E8012196F8018491843740F4843001
:1027100008F051C0813081F0823019F15BC08537FB
:1027200009F444C0A8F19CE7980F903708F052C014
:102730008F770E94CB0C41C00E5F1F4FFE0184912A
:1027400090E2980F983050F48770FE2D01C0FF0F73
:102750008A95EAF78F2F0E94FC1514C00E94210C65
:102760002DC00E5F1F4FFE01849190E2980F9830AC
:1027700060F48770FE2D01C0FF0F8A95EAF78F2F56
:102780000E9402160E94271619C00E94CB0C16C088
:102790000E5F1F4FFE01C491CC2381F08FE99FE0B3
:1027A0000197F1F700C00000C150F6CF0E5F1F4F38
:1027B000FE01F49003C00E94210C8E018F2D88230E
:1027C00009F49FCFEFE9FFE03197F1F700C0000077
:1027D0008150F5CFDF91CF911F910F91FF90EF9036
:1027E0000895089508950C94F2130C94F3130E9425
:1027F000F51360931502709316028093170290935D
:1028000018020C94F30F0C94F7130F931F9300917D
:102810001502109116022091170230911802602BB8
:10282000712B822B932B1F910F910C94F7130F9305
:102830001F930091150210911602209117023091FA
:10284000180260237123822393231F910F910C940C
:10285000F7130F931F930091150210911602209108
:1028600017023091180260277127822793271F9142
:102870000F910C94F7130C94F2130E943B14609385
:1028800011027093120280931302909314020C941D
:10289000F30F60E070E0CB010C943D140F931F9395
:1028A00041E050E060E070E08A019B0104C0000F4D
:1028B000111F221F331F8A95D2F7C901B8011F913A
:1028C0000F910C943D140F931F9341E050E060E092
:1028D00070E004C0440F551F661F771F8A95D2F71A
:1028E0008091110290911202A0911302B0911402F2
:1028F0008A019B01082B192B2A2B3B2BC901B801FC
:102900001F910F910C943D140F931F9341E050E0E1
:1029100060E070E004C0440F551F661F771F8A9562
:10292000D2F74095509560957095809111029091E5
:102930001202A0911302B09114028A019B01082394
:1029400019232A233B23C901B8011F910F910C942D
:102950003D140F931F9341E050E060E070E004C02D
:10296000440F551F661F771F8A95D2F78091110279
:1029700090911202A0911302B09114028A019B015E
:10298000082719272A273B27C901B8011F910F9152
:102990000C943D140F931F93009111021091120299
:1029A0002091130230911402602B712B822B932BF8
:1029B0001F910F910C943D140F931F9300911102DE
:1029C000109112022091130230911402602371239E
:1029D000822393231F910F910C943D140F931F9307
:1029E00000911102109112022091130230911402F1
:1029F00060277127822793271F910F910C943D1414
:102A0000089529E0929F800D1124E82FE695E69520
:102A1000E695877051E001C0550F8A95EAF785E089
:102A2000E89FF0011124EC51FE4F20E030E070E00F
:102A30004081CB01022E02C0969587950A94E2F759
:102A40008170819584278523842781932F5F3F4F51
:102A50002530310569F7089529E0929F800D1124F2
:102A6000682F669566956695982F977085E0689FA4
:102A7000B001112440E050E080E0FB01E40FF51FBD
:102A8000EC51FE4F208130E0092E02C0369527958B
:102A90000A94E2F721703327042E01C0220F0A9412
:102AA000EAF7822B4F5F5F4F4530510531F70895AC
:102AB000BF92CF92DF92EF92FF920F931F93CF932B
:102AC000DF938C01C0901102D0901202E0901302AB
:102AD000F09014028091150290911602A0911702B5
:102AE000B0911802C82AD92AEA2AFB2ACFE1D0E0FD
:102AF000D701C6010C2E04C0B695A795979587956A
:102B00000A94D2F780FD04C0219790F7B12C07C03A
:102B1000BC2EB8018C2F0E945F030197A9F38B2D67
:102B2000DF91CF911F910F91FF90EF90DF90CF90A9
:102B3000BF900895CF93DF93EC010E945815BE011A
:102B40000E945F03DF91CF9108951F93CF93DF938E
:102B5000EB019091AB01992321F0CB010E949A15D2
:102B600013C0882349F0CB010E945815182F682FF5
:102B7000CE010E94011504C0CB010E942C15182F14
:102B8000BE01812F0E945F03DF91CF911F910895B5
:102B900080911902859585958595089580911902F2
:102BA0008770089590911902977081E009F480E090
:102BB000089580912502089590912502892B809394
:102BC00025020895809590912502892380932502FE
:102BD000089510922502089590912402892B8093E4
:102BE00024020895809590912402892380932402E1
:102BF000089510922402089590912302892B8093C6
:102C000023020895809590912302892380932302C3
:102C1000089510922302089580911A02089508954C
:102C20000C940F160C94101690911A02981721F01C
:102C300080931A020C941216089580911A02882328
:102C400029F010921A0280E00C9412160895E09177
:102C50000101F0910201809125028083E091010140
:102C6000F0910201908180912402892B8083E09170
:102C70000101F0910201908180912302892B8083D0
:102C800080911A02882381F0E0910101F091020104
:102C90009081892B808380910101909102010E9493
:102CA0003A1781110E941D16809101019091020135
:102CB0000C94D20A0C940F1698E0899F900111246D
:102CC000262B209319020E94631480911902859586
:102CD000859585950C945A161092190280E00C94F3
:102CE0005A16209119028095822380931902982FF9
:102CF000977079F430E0482F082E000C550B2417FC
:102D0000350739F08595859585950E9484140C9436
:102D10006C16089580E090E00E94A32221E08C3E92
:102D20009E4F09F020E0822F089582E090E00C94FD
:102D30009B2283E090E00C949B22CF9384E090E070
:102D40000E949B22C82F81E290E00E949B222C2FA0
:102D500030E0A901582BCA01CF910895CF93C92F14
:102D6000682F84E090E00E94A9226C2F81E290E01D
:102D7000CF910C94A92286E090E00C949B22682FBE
:102D800086E090E00C94A922AB01BC018FE090E0BA
:102D90000C94BB22AB01BC0183E190E00C94BB22FC
:102DA00060E070E0CB010C94CA1660E070E0CB01EB
:102DB0000E94C4160C94D0166CEE7EEF80E090E07A
:102DC0000E94C72260E082E090E00E94A92260E0B9
:102DD00083E090E00E94A922109215021092160240
:102DE000109217021092180260E084E090E00E94B6
:102DF000A92260E081E290E00E94A92260E085E0E3
:102E000090E00E94A92260E086E090E00E94A92262
:102E10006FEF87E090E00E94A92240E050E0BA0105
:102E200088E090E00E94BB2260E08DE090E00E948C
:102E3000A92240E050E0BA0188E190E00E94BB2264
:102E400060E087E190E00E94A92240E050E0BA01F2
:102E50008CE190E00E94BB2260E080E290E00E9462
:102E6000A9220C94D5160C94DC16682F8EE090E005
:102E70000C94A922FC01329697E080E0915029F051
:102E800021912223D9F38F5FF9CF0895662349F06A
:102E9000FC01329608962191621729F0E817F9078C
:102EA000D1F780E0089581E008959C01FC013296FD
:102EB0009FEF80E04191461789F09F3F19F441113F
:102EC00001C0982F8F5F8630A9F79F3F39F0F90135
:102ED000E90FF11D97FDFA956283089508959C010D
:102EE0002A5F3F4FFC014281461301C012820196C6
:102EF00082179307B9F708950C9455170C946F1720
:102F0000029626E0FC0111922A95E9F708950895AA
:102F10000C9487170C948717CF930E948A170E94EE
:102F2000B5050E948817C0E08C2F0E944E05892BA2
:102F300029F4CF5FC830C1F780E001C081E0CF91B4
:102F400008950C9487170C94A1170E94A3178091E1
:102F50006E02843061F11092270220E488E190E053
:102F60000FB6F894A895809360000FBE2093600080
:102F700080E00E94EC0780E00E94E4020E94A31718
:102F800083B7817F846083BF83B7816083BF789478
:102F9000889583B78E7F83BF0FB6F894A8958091EC
:102FA0006000886180936000109260000FBE0895F9
:102FB0000C9487170E940D100E94AA060E94C60A50
:102FC0000E94E4020C94D8171F920F920FB60F9232
:102FD00011248F939F93AF93BF9380912702811108
:102FE00013C08091640290916502A0916602B09135
:102FF00067024196A11DB11D809364029093650202
:10300000A0936602B0936702BF91AF919F918F9199
:103010000F900FBE0F901F90189582E084BD93E033
:1030200095BD9AEF97BD80936E0008952FB7F894E1
:103030008091640290916502A0916602B09167024E
:103040002FBF08959C014FB7F8948091640290912E
:103050006502A0916602B09167024FBF821B930B7D
:10306000089578941F920F920FB60F9211248F93A8
:103070009F93AF93BF938091640290916502A0915A
:103080006602B09167020196A11DB11D8093640292
:1030900090936502A0936602B0936702BF91AF91CF
:1030A0009F918F910F900FBE0F901F90189581E008
:1030B0008093E00080E28093D8001092C9008FE1F5
:1030C0009EE40197F1F700C0000087E090EBDC017F
:1030D0008093770290937802A0937902B0937A025A
:1030E0009CE088E10FB6F894A895809360000FBE2D
:1030F00090936000FFCF0E948A16811102C00E9447
:1031000033170E949516809326020E949D16909375
:103110006902809368020E949916682F70E080E02F
:1031200090E00C94031480912F0280FF0BC06091FB
:10313000080185E0689FB001112475956795759524
:1031400067952BC081FF09C06091080185E0689FE9
:10315000B00111247595679520C082FF07C060916A
:10316000080185E0689FB001112417C090912E02DC
:103170009923D1F060910701961788F720910801F3
:1031800085E0289F90011124929FA001939F500DEC
:10319000112470E0CA010E9445226038710540F494
:1031A0006115710519F406C065E070E0862F089579
:1031B0008FE7089581E0089580912F0280FF08C075
:1031C0006091040170E0759567957595679521C0CC
:1031D00081FF06C06091040170E07595679519C084
:1031E00082FF04C06091040170E010C090912E0233
:1031F000992399F0609103019617A0F7809104013B
:10320000899FC001112470E00E9445226038710539
:1032100040F46115710519F406C061E070E0862F75
:1032200008958FE7089581E00895803F21F40E947A
:103230009318819504C0813F29F40E9493188093CC
:1032400033020895823F21F40E949318819504C0AF
:10325000833F29F40E949318809332020895893F96
:1032600019F40E94DC1805C08A3F31F40E94DC1872
:1032700081958093340208958B3F21F40E94DC18DD
:10328000819504C08C3F29F40E94DC18809335029C
:103290000895843F21F480913102816017C0853FF9
:1032A00021F480913102826011C0863F21F4809127
:1032B000310284600BC0873F21F480913102886025
:1032C00005C0883F31F480913102806180933102E2
:1032D00008958D3F21F480912F0281600BC08E3FB5
:1032E00021F480912F02826005C08F3F29F48091E4
:1032F0002F02846080932F020895803F39F48091DB
:10330000330287FF6CC01092330269C0813F29F4F9
:10331000809133021816BCF362C090913202823F52
:1033200029F497FF5CC01092320259C0833F19F410
:103330001916CCF354C0893F41F480913402181619
:103340000CF04DC0109234024AC08A3F29F480919B
:10335000340287FF44C0F6CF8B3F39F480913502A9
:1033600087FF3DC0109235023AC08C3F29F480910E
:1033700035021816BCF333C0843F21F4809131022A
:103380008E7F17C0853F21F4809131028D7F11C05F
:10339000863F21F4809131028B7F0BC0873F21F45F
:1033A00080913102877F05C0883F31F480913102DE
:1033B0008F7E8093310213C08D3F21F480912F02C4
:1033C0008E7F0BC08E3F21F480912F028D7F05C030
:1033D0008F3F29F480912F028B7F80932F02809161
:1033E000320281110EC08091330281110AC0809196
:1033F0003402811106C080913502811102C0109201
:103400002E02089580E392E00E94DD0A0E941618C1
:1034100090932D0280932C020895CF93DF9300D0D8
:1034200000D000D0CDB7DEB786E0E0E3F2E0DE0109
:10343000119601900D928A95E1F7809132028111E7
:1034400005C080913302882309F47AC080912A0252
:1034500090912B020E942218AC0190912E02992388
:1034600039F02091090130E02417350758F068C081
:1034700020910A018AE0289F900111242417350722
:1034800018F05EC09F3F19F09F5F90932E0210923C
:1034900034021092350280913202181624F40E94F0
:1034A0009318809332028091320287FF05C00E94F8
:1034B000931881958093320280913302181624F478
:1034C0000E949318809333028091330287FF05C0D6
:1034D0000E949318819580933302309132023323F6
:1034E000E1F0209133022223C1F045EB3403C00107
:1034F0001124992319F09093320203C081E0809344
:10350000320235EB2303C0011124992319F0909363
:10351000330203C081E0809333020E94021A80913B
:103520002C0290912D0290932B0280932A0286E028
:10353000FE013196A0E3B2E001900D928A95E1F789
:1035400080913402811105C080913502882309F4ED
:103550007AC080912802909129020E942218AC0121
:1035600090912E02992339F02091050130E0241723
:10357000350758F068C0209106018AE0289F900125
:1035800011242417350718F05EC09F3F19F09F5F84
:1035900090932E02109232021092330280913402E4
:1035A000181624F40E94DC188093340280913402AF
:1035B00087FF05C00E94DC188195809334028091BA
:1035C0003502181624F40E94DC188093350280918D
:1035D000350287FF05C00E94DC1881958093350273
:1035E000309134023323E1F0209135022223C1F0DF
:1035F00045EB3403C0011124992319F09093340250
:1036000003C081E08093340235EB2303C001112411
:10361000992319F09093350203C081E0809335021D
:103620000E94021A80912C0290912D0290932902FF
:103630008093280286E0FE013196A0E3B2E001907B
:103640000D928A95E1F726960FB6F894DEBF0FBE6D
:10365000CDBFDF91CF910895E0E3F2E086E0DF0196
:103660001D928A95E9F710922E0210922F0208956A
:1036700080913E020895CF93DF9300D01F92CDB783
:10368000DEB790916E02943019F589837B836A834B
:1036900082E08093E9008FEF9091E800815095FDE2
:1036A00006C095ED9A95F1F700008111F5CF809154
:1036B000E80085FF0DC040E050E063E070E0CE011F
:1036C00001960E94831D8091E8008E778093E80028
:1036D0000F900F900F90DF91CF910895CF93DF93CC
:1036E000EC010E94661D823011F0843031F4BE017D
:1036F00084E0DF91CF910C943B1BDF91CF91089533
:10370000BC0183E00C943B1BCF93DF93EC010E9440
:10371000661D823011F08430F9F482E08093E90074
:103720008FEF9091E800815095FD06C095ED9A9538
:10373000F1F700008111F5CF8091E80085FF0CC002
:1037400040E050E066E070E0CE010E94831D809171
:10375000E8008E778093E800DF91CF910895CF93B2
:10376000DF93EC010E94661D823011F0843039F540
:1037700081E08093E9008FEF9091E800815095FD02
:1037800006C095ED9A95F1F700008111F5CF809173
:10379000E80085FF14C040E050E068E070E0CE0132
:1037A0000E94831D8091E8008E778093E80088E076
:1037B000FE01A6E3B2E001900D928A95E1F7DF9158
:1037C000CF91089580916D02811109C00E94141F4C
:1037D0000E94711F8091E20084608093E20008954E
:1037E00010926D020895089508950C94DA1742E03E
:1037F00061EC81E00E948D1E42E261EC82E00C945B
:103800008D1E80917002833009F460C030F48130E5
:1038100071F0823009F499C008958A3009F485C0A6
:103820008B3009F46BC0893009F0A7C020C08091AB
:103830006F02813A09F0A1C08091E800877F8093F0
:10384000E8008091730290917402892B21F468E062
:1038500086E392E003C060E080E090E070E00E94C8
:10386000CE1D8091E8008B778093E80008958091C9
:103870006F02813209F081C08091730290917402CD
:10388000029708F07AC08091E800877F8093E80073
:103890008091E80082FD05C080916E028111F8CF11
:1038A0006CC02091F3008091F20090E0922B02977F
:1038B00029F48091F1008B7F813021F48091F10017
:1038C00080933E028091E8008B7753C080916F0215
:1038D000813A09F052C08091730290917402892B51
:1038E00009F04BC08091E800877F8093E8008091C9
:1038F000E80080FFFCCF8091150136C080916F02F7
:103900008132D9F58091730290917402892BA9F5C7
:103910008091E800877F8093E8000E94C21E80911A
:103920007102809315010C940D1080916F02813209
:1039300021F58091E800877F8093E8000E94C21EF5
:103940008091720280933F02089580916F02813AC4
:10395000A1F48091E800877F8093E8008091E800DF
:1039600080FFFCCF80913F028093F1008091E800BE
:103970008E778093E8000C94C21E089584B7877FE9
:1039800084BF0FB6F894A8958091600088618093F9
:103990006000109260000FBE90E080E80FB6F894CF
:1039A00080936100909361000FBE0E94270B0E94DC
:1039B000141F0E94711F8091E20084608093E200D6
:1039C00078940E9406220E94310B8BE091E00E94C5
:1039D000C10A80916E02853069F40E94A51780911A
:1039E0006C028823B1F30E948C17882391F30E9404
:1039F0006D1DEFCF0E943B0BECCF0C94FF1C292FC9
:103A0000332723303105C9F060F42130310581F0CE
:103A10002230310509F04AC08BE390E02EE533E017
:103A200049C02132310511F12232310579F13EC010
:103A300082E190E029E933E03DC09927813091058A
:103A400061F040F08230910559F0039779F5EAE38F
:103A5000F3E008C0EAE5F3E005C0ECE4F3E002C0FF
:103A6000E0E4F3E0849190E09F0124C061157105CA
:103A700041F061307105D1F489E090E029E833E04C
:103A800019C089E090E020E733E014C061157105AA
:103A900041F06130710551F481E890E02BEA33E0A8
:103AA00009C080E490E02CE234E004C080E090E0C3
:103AB00020E030E0FA0131832083089580916E0286
:103AC000843011F081E0089582E0089580914002F1
:103AD000811102C00C945E1D089580E189BD82E1D0
:103AE00089BD09B400FEFDCF8091D8008F7D809301
:103AF000D8008091E00082608093E0008091E00037
:103B000081FDFCCF0895CF92DF92EF92FF920F9349
:103B10001F93CF93DF93EC018B017A010E94E11E8A
:103B2000811133C0E114F10439F0F70180819181F2
:103B3000081B190BC80FD91FC12CD12C0115110559
:103B400019F18091E80085FD16C08091E8008E771C
:103B50008093E800E114F10449F0F701808191813C
:103B6000C80ED91ED182C08285E00FC00E94E11E1E
:103B7000882321F30AC089918093F1000150110933
:103B8000FFEFCF1ADF0ADACF80E0DF91CF911F91EC
:103B90000F91FF90EF90DF90CF90089520917502E4
:103BA000309176022617370748F06115710539F410
:103BB0002091E8002E772093E80001C0B901FC01B4
:103BC00020E06115710579F180916E028823F1F191
:103BD0008530F1F18091E80083FD3CC08091E800E0
:103BE00082FD2EC08091E80080FFEBCF2091F30092
:103BF0008091F20090E0922B6115710551F08830B0
:103C0000910538F421912093F100615071090196DA
:103C1000F3CF21E0089709F020E08091E8008E774B
:103C20008093E800CECF2111CFCF0AC080916E02E1
:103C3000882361F0853061F08091E80083FD0AC03F
:103C40008091E80082FFF2CF80E0089582E008953D
:103C500083E0089581E00895209175023091760205
:103C60002617370748F06115710539F42091E800EF
:103C70002E772093E80001C0B901FC0120E0611516
:103C8000710591F180916E02882309F440C085305E
:103C900009F43FC08091E80083FD3DC08091E800B9
:103CA00082FD2FC08091E80080FFE9CF2091F300D2
:103CB0008091F20090E0922B6115710559F08830E7
:103CC000910540F424912093F100319661507109DF
:103CD0000196F2CF21E0089709F020E08091E800FA
:103CE0008E778093E800CBCF2111CCCF0AC0809192
:103CF0006E02882361F0853061F08091E80083FDD9
:103D00000AC08091E80082FFF2CF80E0089582E04F
:103D1000089583E0089581E00895982F973068F51D
:103D20009093E900981739F07091EC002091ED0024
:103D30005091F00003C0242F762F50E021FD02C0E7
:103D40009F5FECCF3091EB003E7F3093EB003091E2
:103D5000ED003D7F3093ED003091EB00316030930A
:103D6000EB007093EC002093ED005093F000209155
:103D7000EE0027FDE5CF80E008958F708093E90085
:103D800081E0089580916F0287FF11C08091E80063
:103D900082FD05C080916E028111F8CF11C0809123
:103DA000E8008B770BC080916E02882349F08091E8
:103DB000E80080FFF8CF8091E8008E778093E800DC
:103DC00008952091E4003091E50095E64091EC00E3
:103DD000842F817040FF23C08091E80080FD1DC0CA
:103DE00080916E02882399F0853099F08091EB00E4
:103DF00085FD11C04091E4005091E500241735077E
:103E000029F3915011F09A01E1CF84E0089582E006
:103E1000089583E0089581E0089580E00895409139
:103E2000E80042FFDDCF08950E94821F0E948A1F92
:103E3000E0EEF0E0808181608083E8EDF0E0808159
:103E40008F77808319BCA7EDB0E08C918E7F8C9327
:103E500080818F7E808310926D0208950F931F934F
:103E6000CF93DF930E94821F0E948A1FC8EDD0E08B
:103E700088818F77888388818068888388818F7D17
:103E8000888319BC10926E0210926A0210926C0222
:103E900010926B0200EE10E0F80180818B7F80832E
:103EA00088818160888342E060E080E00E948D1E0E
:103EB000E1EEF0E080818E7F8083E2EEF0E08081B1
:103EC00081608083808188608083F80180818E7F1B
:103ED0008083888180618883DF91CF911F910F91CA
:103EE0000895E8EDF0E080818F7E8083E7EDF0E0DB
:103EF00080818160808384E082BF81E080936D0255
:103F00000C942E1FE8EDF0E080818E7F808310926C
:103F1000E20008951092DA001092E10008951F92D5
:103F20000F920FB60F9211242F933F934F935F93ED
:103F30006F937F938F939F93AF93BF93EF93FF9371
:103F40008091E10082FF0BC08091E20082FF07C0F8
:103F50008091E1008B7F8093E1000E940522809197
:103F6000DA0080FF1FC08091D80080FF1BC08091C5
:103F7000DA008E7F8093DA008091D90080FF0DC037
:103F800080E189BD82E189BD09B400FEFDCF81E0F9
:103F900080936E020E94E21B05C019BC10926E0253
:103FA0000E94F01B8091E10080FF19C08091E20027
:103FB00080FF15C08091E2008E7F8093E2008091A7
:103FC000E20080618093E2008091D800806280935B
:103FD000D80019BC85E080936E020E94F41B80918A
:103FE000E10084FF30C08091E20084FF2CC080E1BA
:103FF00089BD82E189BD09B400FEFDCF8091D80062
:104000008F7D8093D8008091E1008F7E8093E100C6
:104010008091E2008F7E8093E2008091E2008160D7
:104020008093E20080916A02882311F084E007C047
:104030008091E30087FD02C081E001C083E08093AE
:104040006E020E94F51B8091E10083FF29C08091E0
:10405000E20083FF25C08091E100877F8093E1002B
:1040600082E080936E0210926A028091E1008E7F5E
:104070008093E1008091E2008E7F8093E200809146
:10408000E20080618093E20042E060E080E00E9414
:104090008D1E8091F00088608093F0000E94F31BD9
:1040A000FF91EF91BF91AF919F918F917F916F9110
:1040B0005F914F913F912F910F900FBE0F901F90E6
:1040C00018951F920F920FB60F9211242F933F93C2
:1040D0004F935F936F937F938F939F93AF93BF9310
:1040E000CF93DF93EF93FF93C091E900CF7080915E
:1040F000EC00D82FD17080FDD0E81092E9008091BB
:10410000F000877F8093F00078940E94A5201092A1
:10411000E9008091F00088608093F000CD2BCF7093
:10412000C093E900FF91EF91DF91CF91BF91AF91E3
:104130009F918F917F916F915F914F913F912F91BF
:104140000F900FBE0F901F9018951F93CF93DF9382
:10415000CDB7DEB7AA970FB6F894DEBF0FBECDBFBE
:10416000EFE6F2E08091F100819322E0E737F20779
:10417000C9F70E94011C8091E80083FF2EC1809145
:104180006F0290917002492F50E04A30510508F0BB
:1041900024C1FA01E558FF4F0C947B22803821F0AE
:1041A000823809F01AC108C080916B0290916C02AC
:1041B000992389F082600FC0809173028F708730DD
:1041C00008F00BC18093E9008091EB0085FB882704
:1041D00080F91092E9009091E800977F9093E800B1
:1041E0008093F1001092F100D1C0282F2D7F09F0AB
:1041F000F4C0882319F0823061F0EFC08091710221
:10420000813009F0EAC0933009F080E080936C02BD
:104210002EC08091710281112AC0809173028F702B
:104220002FEF280F263008F0D8C08093E9002091A6
:10423000EB0020FF1CC0933021F48091EB008062E2
:1042400014C09091EB0090619093EB0021E030E07E
:10425000A90102C0440F551F8A95E2F74093EA0076
:104260001092EA008091EB0088608093EB0010923E
:10427000E9008091E800877F8093E8000E94C21ED9
:10428000ACC08111AAC0109171021F778091E30028
:104290008078812B8093E3008091E800877F809372
:1042A000E8000E94C21E8091E80080FFFCCF809150
:1042B000E30080688093E300111102C082E001C036
:1042C00083E080936E0289C08058823008F085C0F8
:1042D00080917102909172028C3D53E0950779F5BF
:1042E00083E08A838AE289834FB7F894DE011396CC
:1042F00020E03EE051E2E32FF0E050935700E491DC
:1043000020FF03C0E295EF703F5FEF708E2F90E0CB
:10431000EA3010F0C79601C0C0968D939D932F5F31
:10432000243149F74FBF8091E800877F8093E800F0
:104330006AE270E0CE0101960E94CE1D16C0609127
:10434000730270917402AE014F5F5F4F0E94FD1CBB
:10435000BC01892B09F441C09091E800977F9093AC
:10436000E80089819A810E942C1E8091E8008B7759
:104370008093E80032C0803881F58091E800877F23
:104380008093E80080916A028093F1008091E800B8
:104390008E7772CF811121C080917102909172024B
:1043A00099270297D4F48091E800877F8093E800F2
:1043B0008091710280936A020E94C21E80916A02FB
:1043C000811106C08091E30087FD02C081E001C039
:1043D00084E080936E020E94F71B8091E80083FFC7
:1043E0000AC08091E800877F8093E8008091EB000D
:1043F00080628093EB00AA960FB6F894DEBF0FBEE2
:10440000CDBFDF91CF911F9108950895CF938091F3
:104410006E028823A1F0C091E900CF709091EC006A
:10442000892F817090FD80E8C82B1092E90080915F
:10443000E80083FD0E94A520CF70C093E900CF91D2
:104440000895DB018F939F930E949022BF91AF91BB
:10445000A29F800D911DA39F900DB29F900D1124DE
:104460000895AA1BBB1B51E107C0AA1FBB1FA617BB
:10447000B70710F0A61BB70B881F991F5A95A9F70D
:1044800080959095BC01CD01089597FB072E16F4F9
:10449000009407D077FD09D00E94312207FC05D097
:1044A0003EF4909581959F4F0895709561957F4F4B
:1044B0000895A1E21A2EAA1BBB1BFD010DC0AA1F65
:1044C000BB1FEE1FFF1FA217B307E407F50720F07D
:1044D000A21BB30BE40BF50B661F771F881F991FF8
:1044E0001A9469F760957095809590959B01AC0141
:1044F000BD01CF010895EE0FFF1F0590F491E02D4F
:104500000994A29FB001B39FC001A39F700D811DAC
:104510001124911DB29F700D811D1124911D0895CC
:104520000E948122A59F900DB49F900DA49F800DA5
:10453000911D11240895F999FECF92BD81BDF89A7D
:10454000992780B50895A8E1B0E042E050E00C94CE
:10455000CF22262FF999FECF92BD81BDF89A0197FF
:1045600000B4021639F01FBA20BD0FB6F894FA9ABB
:10457000F99A0FBE08950396272F0E94AA220E943F
:10458000A922252F0E94AA22242F0C94AA22019648
:10459000272F0E94AA220C94A922DC01CB01FC0146
:1045A000F999FECF06C0F2BDE1BDF89A319600B48C
:0E45B0000D9241505040B8F70895F894FFCF97
:1045BE00061B022808641E140A321E381BAF1B8409
:1045CE001B801B6E1B01E200E900EA00B500B6007D
:1045DE00B700CD008301CC008A0192019401210223
:1045EE00230224022502260227022A02B300B40067
:1045FE006F00700081828393929190946697C63477
:10460E0036323331F7F6F5F4E200E900EA00B50090
:10461E00B600B700CD008301CC008A01920194014F
:10462E002102230224022502260227022A02B300B7
:0A463E00B4006F0070008182830059
:00000001FF
